8=FIX.4.4|9=65|35=A|34=1|49=BANZAI|52=20191230-09:13:33.637|56=EXEC|98=0|108=30|10=224|
8=FIX.4.4|9=65|35=A|34=2|49=BANZAI|52=20191230-09:13:38.631|56=EXEC|98=0|108=30|10=224|
8=FIX.4.4|9=65|35=A|34=3|49=BANZAI|52=20191230-09:13:43.631|56=EXEC|98=0|108=30|10=221|
8=FIX.4.4|9=65|35=A|34=4|49=BANZAI|52=20191230-09:13:48.631|56=EXEC|98=0|108=30|10=227|
8=FIX.4.4|9=65|35=A|34=5|49=BANZAI|52=20191230-09:13:53.632|56=EXEC|98=0|108=30|10=225|
8=FIX.4.4|9=65|35=A|34=6|49=BANZAI|52=20191230-09:13:58.631|56=EXEC|98=0|108=30|10=230|
8=FIX.4.4|9=65|35=A|34=7|49=BANZAI|52=20191230-09:14:03.632|56=EXEC|98=0|108=30|10=223|
8=FIX.4.4|9=65|35=A|34=8|49=BANZAI|52=20191230-09:14:08.632|56=EXEC|98=0|108=30|10=229|
8=FIX.4.4|9=65|35=A|34=9|49=BANZAI|52=20191230-09:14:13.631|56=EXEC|98=0|108=30|10=225|
8=FIX.4.4|9=66|35=A|34=10|49=BANZAI|52=20191230-09:14:18.631|56=EXEC|98=0|108=30|10=015|
8=FIX.4.4|9=65|35=A|34=1|49=BANZAI|52=20191230-09:15:28.996|56=EXEC|98=0|108=30|10=238|
8=FIX.4.4|9=65|35=A|34=2|49=BANZAI|52=20191230-09:15:33.986|56=EXEC|98=0|108=30|10=234|
